:020000040800F2
:1000000050040020450100089F06000897060008DC
:100010009B06000855050008E113000800000000D9
:10002000000000000000000000000000C10B0008FC
:10003000650500080000000049080008AD0C000834
:100040005F0100085F0100085F0100085F01000810
:100050005F0100085F0100085F0100085F01000800
:100060005F0100085F0100085F0100085F010008F0
:100070005F0100085F0100085F0100085F010008E0
:100080005F0100085F0100085F0100085F010008D0
:100090005F0100085F0100085F0100085F010008C0
:1000A0005F0100085F0100085F0100085F010008B0
:1000B0005F0100085F0100085F0100085F010008A0
:1000C0005F0100085F0100085F0100085F01000890
:1000D0005F0100085F0100085F0100085F01000880
:1000E0005F0100085F0100085F0100085F01000870
:1000F0005F0100085F0100085F0100085F01000860
:100100005F0100085F0100085F0100085F0100084F
:100110005F0100085F0100085F0100085F0100083F
:100120005F0100085F0100085F0100085F0100082F
:10013000DFF80CD000F0FCF9004800479D150008DE
:10014000500400200648804706480047FEE7FEE7C7
:10015000FEE7FEE7FEE7FEE7FEE7FEE7FEE7FEE777
:10016000B10C0008310100082DE9FE4F804681EAFC
:100170000300C00F0C46009021F0004123F0004521
:10018000B8EB0200A94105D24046214690461C46E4
:100190000B46024623F00040104347D0270DC7F31B
:1001A0000A00C3F30A510290401A019040286BDA0A
:1001B000C3F3130040F4801B0098924620B1002343
:1001C000D2EB030A63EB0B0B01985946C0F14002D6
:1001D000504600F01EF906460D4650465946019A13
:1001E00000F036F910EB08006141002487EA115253
:1001F00084EAE7731A4340D0009A62B3019A012A55
:100200004FEA075215DC001B61EB02014FF0004280
:1002100002EA0752CDE90042001C41F58011324646
:100220002B4600F036F903B0BDE8F08F404621467A
:10023000F9E7001B61EB0201001C41F58013001877
:100240005B412018A2F5001747EB030140EAD57087
:10025000B6196D4111E06D084FEA360645EAC075E2
:100260004FEA0752001B61EB0201001C41F58011AF
:1002700049084FEA30000019514132462B4603B07D
:10028000BDE8F04F00F0F6B80098012240000023CE
:10029000D0EB020263EBE073009821464FEAE07472
:1002A000B8EB000061EB0401E9E783F000435BE792
:1002B00081F0004158E72DE9FE4F81EA030404F084
:1002C000004421F0004100944FF0000B23F0004364
:1002D00050EA01045ED052EA03045BD0C3F30A542F
:1002E000C1F30A552C44A4F2F3340194A0FB025448
:1002F000C1F3130141F48011C3F3130343F48013DA
:1003000001FB024400FB034E840A970A44EA81542D
:1003100047EA8357A4FB076802958D0A05FB07850A
:100320004FEA932C04FB0C542705029D4FEA065814
:1003300047EA1637B5EB08056EEB070C870E920EF1
:1003400047EA811742EA8312A7FB0201B6EB0B01D1
:1003500064EB00042B0D43EA0C335E1844EB1C5095
:10036000DA465146E7FB0201C5F313044FEA0B33AB
:1003700043EA14534FEA0432019C43EA0603A4F112
:100380000C040294009CCDE900B400F082F803B0A4
:10039000BDE8F08F00200146F9E70EB540F2334189
:1003A00002910021CDE900110A460B4600F071F8D8
:1003B00003B000BDC1F30A5210B5C1F3130140F2FE
:1003C000FF3341F480119A4201DA002010BD40F25F
:1003D00033439A42A2F2334203DC524200F028F83F
:1003E00010BD904010BD30B50B46014600202022C4
:1003F000012409E021FA02F59D4205D303FA02F532
:10040000491B04FA02F52844151EA2F10102F1DC91
:1004100030BD202A04DB203A00FA02F100207047A8
:100420009140C2F1200320FA03F319439040704732
:10043000202A04DB203A21FA02F00021704721FA39
:1004400002F3D040C2F120029140084319467047A0
:10045000202A06DBCB17203A41FA02F043EAE07388
:1004600006E041FA02F3D040C2F120029140084375
:100470001946704710B5141E73F1000408DA401CC9
:1004800041F1000192185B411A4301D120F00100B3
:1004900010BD2DE9F04D92469B4611B1B1FA81F2A3
:1004A00002E0B0FA80F220329046FFF7B2FF044635
:1004B0000F4640EA0A0041EA0B0153465A460843F8
:1004C00013D0114653EA010019D0C8F1400250463A
:1004D000FFF7AEFF05460E46504659464246FFF727
:1004E00098FF084305D0012004E020463946BDE8C6
:1004F000F08D0020054346EAE0762C4337430A9806
:100500006305E40AA0EB08000022FD0A44EA475410
:100510000A3002D500200146E9E7010510196941BA
:10052000DDE9084500196941BDE8F04DA2E700008A
:10053000064C074D06E0E06840F0010394E8070030
:1005400098471034AC42F6D3FFF7F6FD4017000889
:100550006017000800BFFEE710B500F057FE00F07E
:1005600037FA10BD70472DE9F041024600250026FC
:10057000002000230024002791F803C00CF00F0591
:1005800091F803C00CF0100CBCF1000F03D091F8EF
:1005900002C04CEA050591F800C0BCF1000F31D053
:1005A000146800202BE04FF0010C0CFA00F3B1F8B6
:1005B00000C00CEA03069E4220D183004FF00F0CCE
:1005C0000CFA03F7BC4305FA03FC4CEA040491F867
:1005D00003C0BCF1280F06D14FF0010C0CFA00FC4F
:1005E000C2F814C00AE091F803C0BCF1480F05D16D
:1005F0004FF0010C0CFA00FCC2F810C0401C082897
:10060000D1D31460B1F800C0BCF1FF0F34DD5468E1
:1006100000202EE000F1080C4FF0010808FA0CF35E
:10062000B1F800C00CEA03069E4221D183004FF0CE
:100630000F0C0CFA03F7BC4305FA03FC4CEA040464
:1006400091F803C0BCF1280F05D100F1080C08FA9D
:100650000CF8C2F8148091F803C0BCF1480F07D120
:1006600000F1080C4FF0010808FA0CF8C2F81080ED
:10067000401C0828CED35460BDE8F081024600201B
:1006800093680B400BB1012000E0002070474161EE
:1006900070470161704700BFFEE700BFFEE770478B
:1006A0001FB510A103C9CDE90201052202A930201E
:1006B00000F048FA05226946102000F005FA0024EF
:1006C00006E01DF80400C22800D003E0601CC4B29C
:1006D000052CF6DB00BF052C02D1012004B010BDB3
:1006E0000020FBE7C2C2C2C2C200000010B5202138
:1006F0001248FFF7CCFF052211492A2000F022FA08
:100700000121212000F042FA0121222000F03EFACE
:100710002821252000F03AFA1021312000F036FA85
:100720000F21262000F032FA0F21202000F02EFAAF
:1007300020210248FFF7ADFF10BD0000001001406E
:100740002300002070B5054620211348FFF7A1FFC4
:1007500000BF10211048FFF791FF0028F9D1202198
:100760000D48FFF794FF072000F0D2F90446214618
:10077000272000F00BFA04F0400050B11022294667
:10078000612000F0A1F9FF21E22000F0FFF94020F4
:1007900070BD0020FCE700000010014008B54FF4D8
:1007A000A06000F047F825208DF8000001208DF8AA
:1007B00001008DF802008DF80300684600F002F891
:1007C00008BD000070B5002100230F22C47804B3D7
:1007D000154C246804F4E064C4F5E064210AC1F116
:1007E0000403CA40447804FA03F184781440214396
:1007F00009010E4C0678A155047804F01F05012468
:10080000AC4005786D11AD0005F1E025C5F800415B
:1008100009E0047804F01F050124AC40044D06787B
:10082000761145F8264070BD0CED00E000E400E0D4
:1008300080E100E002490143024A11607047000074
:100840000000FA050CED00E07047000029B1064AEF
:10085000D2690243044BDA6104E0034AD26982435D
:10086000014BDA61704700000010024029B1064ACE
:1008700092690243044B9A6104E0034A92698243FD
:10088000014B9A61704700000010024030B5002112
:100890000022002400232D4D6D6805F00C0121B1CC
:1008A000042905D0082923D105E0294D056022E05F
:1008B000274D05601FE0254D6D6805F47012234D2E
:1008C0006D6805F48034022505EB92421CB9214D78
:1008D000554305600BE01D4D6D6805F400351DB1F5
:1008E0001C4D5543056002E0194D5543056002E07B
:1008F000174D056000BF00BF144D6D6805F0F00195
:100900000909154D6B5C0568DD4045600F4D6D684C
:1009100005F4E061090A104D6B5C4568DD408560B7
:100920000A4D6D6805F46051C90A0B4D6B5C456852
:10093000DD40C560054D6D6805F44041890B074DEC
:100940006B5CC568B5FBF3F5056130BD0010024076
:1009500000127A0000093D00000000201000002075
:1009600021B1028842F04002028004E002884FF682
:10097000BF731A40028070470246002013890B4063
:100980000BB1012000E000207047014688897047C4
:100990008181704710B50022028802F441520B8811
:1009A0004C8823438C882343CC8823430C892343DE
:1009B0004C8923438C892343CC8923431A430280E7
:1009C000838B4FF2FF74234083830B8A038210BD15
:1009D00000B587B001211C20FFF748FF0121080363
:1009E000FFF744FFE020ADF8040001208DF8060079
:1009F00018208DF8070001A92248FFF7B4FD6020F8
:100A0000ADF8040001208DF8060010208DF80700D5
:100A100001A91D48FFF7A7FD1020ADF80400012033
:100A20008DF8060048208DF8070001A91648FFF749
:100A30009AFD40211448FFF72CFE0020ADF8080075
:100A40004FF48270ADF80A000020ADF80C00ADF84C
:100A50000E00ADF810004FF40070ADF81200102039
:100A6000ADF814000020ADF816000720ADF818000E
:100A700002A90648FFF78EFF01210448FFF770FF27
:100A800007B000BD000801400010014000300140E7
:100A900010B5044600BF02210A48FFF76DFF002889
:100AA000F9D021460748FFF773FF00BF0121054831
:100AB000FFF762FF0028F9D00248FFF766FFC0B2D7
:100AC00010BD0000003001402DE9F04107460D4601
:100AD000164620210D48FFF7DAFD40210B48FFF7AD
:100AE000D6FD3846FFF7D4FF8046002405E0FF20FE
:100AF000FFF7CEFF2855601CC4B2B442F7DB40219B
:100B00000248FFF7C6FD4046BDE8F08100100140F5
:100B100070B5044620210A48FFF7B9FD4021084876
:100B2000FFF7B5FD2046FFF7B3FFFF20FFF7B0FF4B
:100B3000054640210248FFF7ACFD284670BD000085
:100B4000001001402DE9F04107460C4615462021D2
:100B50000D48FFF79CFD40210B48FFF798FD3846F4
:100B6000FFF796FF8046002605E014F8010BFFF71B
:100B70008FFF701CC6B2AE42F7DB40210248FFF780
:100B800088FD4046BDE8F0810010014070B5054683
:100B90000C4620210948FFF77AFD40210748FFF75E
:100BA00076FD2846FFF774FF06462046FFF770FFE4
:100BB00040210248FFF76DFD304670BD0010014036
:100BC000704710B500F002F810BD00000CB5002011
:100BD000019000903348006840F48030314908604B
:100BE00000BF3048006800F4003000900198401CBD
:100BF0000190009818B90198B0F5A06FF1D129487B
:100C0000006800F4003010B10120009001E00020E5
:100C100000900098012843D12348006840F010005C
:100C2000214908600846006820F003000860084673
:100C3000006840F0020008601A484068194948609E
:100C40000846406848600846406840F48060486054
:100C50000846406820F47C1048600846406840F42C
:100C6000E81048600846006840F08070086000BFE7
:100C70000C48006800F000700028F9D0094840686E
:100C800020F00300074948600846406840F0020031
:100C9000486000BF0348406800F00C000828F9D104
:100CA0000CBD000000100240002002407047000010
:100CB00010B51348006840F001001149086008466B
:100CC0004068104908400E494860084600680E49CF
:100CD00008400B4908600846006820F4802008603E
:100CE0000846406820F4FE0048604FF41F0088600A
:100CF000FFF767FF4FF000600449086010BD000077
:100D0000001002400000FFF8FFFFF6FE08ED00E0D3
:100D100021B1028842F08002028004E002884FF68E
:100D20007F731A400280704721B1028842F00102AD
:100D3000028004E002884FF6FE731A40028070477A
:100D400031B1B0F8442042F40042A0F8442005E05C
:100D5000B0F84420C2F30E02A0F84420704700000F
:100D600070B5002400220023058C4FF6FF66354045
:100D70000584028C8388848B4FF68F752C404FF648
:100D8000FC752C400D882C434FF6FF552A400D89E9
:100D90004FF6FF7606EA05252A434D8806EA052523
:100DA0002A43154DA84202D0144DA8421DD14FF23E
:100DB000FF752A404D894FF6FF7606EA05252A433E
:100DC0004FF6FF352A408D8806EA05252A434EF660
:100DD000FF752B404DF6FF752B408D8906EA0515F2
:100DE0002B43CD8906EA05152B4383808483CD8868
:100DF0008587028470BD0000002C01400034014052
:100E00000A460021818B4FF6F77319401143818305
:100E10007047000070B5002200230024058C4EF6B8
:100E2000FF7635400584038C8488828B48F6FF75F5
:100E30002A404FF6FF452A400D884FF6FF7606EA16
:100E400005252A434DF6FF752B400D8906EA053529
:100E50002B434D8806EA05352B430B4DA84202D0A3
:100E60000A4DA84208D14BF6FF752C408D894FF6EC
:100E7000FF7606EA85152C4384808283CD88A0F80E
:100E80004050038470BD0000002C0140003401403C
:100E90000A460021818B4FF2FF7319404FF6FF7312
:100EA00003EA0223194381837047000030B589B0FB
:100EB00005460C4601210720FFF7C8FC01210C2044
:100EC000FFF7D4FC0C20ADF8200018208DF823008B
:100ED00003208DF8220008A94148FFF744FB40F2A7
:100EE0000330ADF8200008A93E48FFF73CFBADF801
:100EF0001850ADF814400020ADF81A00ADF81600F7
:100F000005A94FF0804000F079F805A9364800F0B7
:100F100075F805A9354800F071F86020ADF80400B7
:100F20000120ADF806000020ADF80A00ADF80C0075
:100F300001A94FF08040FFF713FF0821C806FFF713
:100F40005FFF01A94FF08040FFF764FF0821C8064A
:100F5000FFF79EFF01A92448FFF702FF082122485E
:100F6000FFF74EFF01A92048FFF754FF08211E4854
:100F7000FFF78EFF01A91D48FFF7F2FE08211B486D
:100F8000FFF73EFF01A91948FFF744FF0821174862
:100F9000FFF77EFF01218807FFF7BAFE01218807CE
:100FA000FFF7CEFE01218807FFF7BEFE01210E48A4
:100FB000FFF7AEFE01210C48FFF7C2FE01210A48EF
:100FC000FFF7B2FE01210948FFF7A2FE0121074801
:100FD000FFF7B6FE01210548FFF7A6FE09B030BDB8
:100FE00000080140000C01400004004000080040DF
:100FF00081877047A0F840107047000000220288E7
:101000001D4B98420ED01D4B98420BD0B0F1804F33
:1010100008D01B4B984205D01A4B984202D01A4B6D
:10102000984204D14FF68F731A404B881A43174BDE
:10103000984207D0164B984204D04FF6FF431A400F
:10104000CB881A4302808B8883850B8803850A4BE3
:1010500098420BD0094B984208D00E4B984205D0CD
:101060000D4B984202D00D4B984201D10B7A03866A
:101070000123838270470000002C014000340140AE
:101080000004004000080040000C00400010004038
:10109000001400400040014000440140004801406D
:1010A00010B5FFF7FDFA07490870084600780128D7
:1010B00003D105A000F096F902E009A000F092F932
:1010C00010BD0000140000200D0A4E5246D3EBD68E
:1010D000F7B0E5C1ACBDD3B3C9B9A60D0A00000095
:1010E0000D0AC7EBBCECB2E9BDD3CFDF0D0A00009F
:1010F00010B5FFF7FBFA3748FFF724FB36490870B5
:1011000008460078402864D1324800784FF47A715C
:1011100048433049497801EBC10202EB011100EB71
:1011200081002C49897801EB810100EB41002949BC
:10113000C978084429490880264800794FF47A7113
:1011400048432449497901EBC10202EB011100EB4C
:1011500081002049897901EB810100EB41001D49A3
:10116000C97908441E4908801A48007A4FF47A71F8
:1011700048431849497A01EBC10202EB011100EB27
:1011800081001449897A01EB810100EB410011498A
:10119000C97A0844134908800E48007B4FF47A71DD
:1011A00048430C49497B01EBC10202EB011100EB02
:1011B00081000849897B01EB810100EB4100054971
:1011C000C97B0844084908800448018807A000F04A
:1011D00009F910BD3C00002014000020160000207A
:1011E000180000201A0000201C0000206368313D18
:1011F00025640A0021B1828942F40052828104E010
:1012000082894DF6FF731A408281704700B585B020
:1012100001210420FFF72AFB01218803FFF726FBA9
:101220004FF40070ADF8100018208DF81300032063
:101230008DF8120004A91748FFF795F94FF4806064
:10124000ADF8100004208DF8130004A91148FFF731
:101250008AF94FF4E13000900020ADF80400ADF8B9
:101260000600ADF80800ADF80C000C20ADF80A003F
:101270006946094800F044F8FFF790FA012240F26D
:101280002551054800F017F801210348FFF7B2FF88
:1012900005B000BD000801400038014002460020B2
:1012A000B1F5007F00D100BF13880B400BB10120C6
:1012B00000E000207047F0B503460024002600251A
:1012C000002040F66A17B94200D100BF1846C1F3AA
:1012D000421401F01F06012707FA06F5012C01D17F
:1012E0000C3004E0022C01D1103000E014301AB1AF
:1012F00007682F43076002E00768AF430760F0BD4F
:101300002DE9F04786B005460E460024A24600BFF0
:10131000A1460027B08900B100BF2F462C8A4CF6A9
:10132000FF700440F08804432C82AC894EF6F31021
:101330000440B08831890843718908430443AC8173
:10134000AC8A4FF6FF400440B0890443AC8201A848
:10135000FFF79CFA1F48874202D1DDF810A001E098
:10136000DDF80CA0A88900F4004040B10AEBCA00E7
:1013700000EB0A1031684900B0FBF1F807E00AEB16
:10138000CA0000EB0A1031688900B0FBF1F8642054
:10139000B8FBF0F004012009642101FB1089A88941
:1013A00000F4004040B1322000EBC900B0FBF1F086
:1013B00000F00700044308E0322000EB091064212C
:1013C000B0FBF1F000F00F0004432C8106B0BDE843
:1013D000F087000000380140C1F3080282807047A6
:1013E00000BFFEE70FB4054B10B503A9044A0298ED
:1013F00000F018F810BC5DF814FB00007915000827
:101400002800002002E008C8121F08C1002AFAD1F3
:1014100070477047002001E001C1121F002AFBD174
:10142000704700002DE9FF4F89B09B460446002518
:1014300006E025280BD05A460B999047641C6D1C7A
:1014400020780028F5D10DB02846BDE8F08F0027A0
:10145000B8460122474900E0074314F8013F203B0A
:1014600002FA03F00842F7D120782E2819D114F897
:10147000010F47F004072A280ED06FF02F022078C2
:10148000A0F1300109290CD808EB880102EB4101D9
:1014900000EB0108641CF2E70A98641C50F8048B06
:1014A0000A9020780028CED0642808D0692806D079
:1014B00075281ED05A460B9990476D1C58E00A9922
:1014C0004FF00A0901C90A91002802DA40422D2191
:1014D00002E0390504D52B218DF82010012103E00D
:1014E000F90704D02021F7E78A4608AE0DE0002175
:1014F000FAE70A994FF00A0901C90A91F7E7494644
:10150000FEF771FF303106F8011D0028F7D1ADEB71
:10151000060000F12009780701D44FF00108C84502
:1015200002DDA8EB090000E000208046002706E06D
:1015300008A85A46C05D0B9990476D1C7F1C574503
:10154000F6DB04E030205A460B9990476D1CB8F149
:101550000001A8F10108F5DC05E016F8010B5A4678
:101560000B9990476D1CB9F10001A9F10109F4DC58
:10157000641C65E70928010070B504460D46E1B218
:101580000548FFF729FF00BF80210348FFF786FECB
:101590000028F9D0204670BD003801401CB540F24B
:1015A000EE2AD346504601900090FEF7D5FFFFF794
:1015B00077FD8F2142F20F70FFF778FC40A0FFF714
:1015C00011FF7CE0FFF794FD43480088B0F5486FB9
:1015D00012DC41480088FEF7E0FE80463F4A404B5F
:1015E000FEF769FE06463F4A3F4BFEF7BDFD044647
:1015F000FEF7E0FE1FFA80FA37480088B0F5486F22
:1016000012DD35480088FEF7C8FE0646374A384BDB
:10161000FEF751FE8046374A374BFEF746FE04463A
:10162000FEF7C8FE1FFA80FA3448008840F6B83149
:10163000884212DC31480088FEF7AFFE8046304A0F
:10164000304BFEF738FE06462F4A304BFEF78CFD36
:101650000446FEF7AFFE1FFA80FB2848008840F6DC
:10166000B831884212DD25480088FEF796FE06460E
:10167000274A284BFEF71FFE0446274A274BFEF752
:1016800014FE8046FEF796FE1FFA80FB514624A00A
:10169000FFF7A8FE594625A0FFF7A4FE51462648AD
:1016A000FFF7A6FC59462548FFF7A2FC4FF0804003
:1016B0000199FFF79FFC21480099FFF79BFC81E708
:1016C0000D0A4E5246D3EBD6F7B0E5C1ACBDD3B34D
:1016D000C9B9A60D0A000000160000207B14AE4711
:1016E000E17AB43FB81E85EB51CC7E40A01A2FDDC5
:1016F0002406D93F0AD7A3703D567F40180000202A
:1017000055C1A8A44E40C33F713D0AD7A3AC724057
:101710006A4DF38E5374D43FB0726891ED1C6A40E9
:1017200070776D76616C313D25640A0070776D7657
:10173000616C323D25640A0000040040000800404E
:1017400060170008000000202C00000004140008AE
:101750008C1700082C00002024040000141400083A
:101760000000000001020304010203040607080947
:1017700002040608000000000000000000003443DE
:0C178000101001344310100100000000A4
:0400000508000131BD
:00000001FF
