:020000040800F2
:100000006804002045010008ED0700088507000886
:10001000E90700089D0400080D1100080000000019
:10002000000000000000000000000000810D00083A
:100030004106000800000000C50900086D0E000818
:100040005F0100085F0100085F0100085F01000810
:100050005F0100085F0100085F0100085F01000800
:100060005F0100085F0100085F0100085F010008F0
:100070005F0100085F0100085F0100085F010008E0
:100080005F0100085F0100085F0100085F010008D0
:100090005F0100085F0100085F0100085F010008C0
:1000A0005F0100085F0100085F0100085F010008B0
:1000B0005F0100085F0100085F0100085F010008A0
:1000C0005F0100085F0100085F0100085F01000890
:1000D0005F0100085F0100085F0100085F01000880
:1000E0005F0100085F0100085F0100085F01000870
:1000F0005F0100085F0100085F0100085F01000860
:100100005F0100085F0100085F0100085F0100084F
:100110005F0100085F0100085F0100085F0100083F
:100120005F0100085F0100085F0100085F0100082F
:10013000DFF80CD000F02EF800480047C912000884
:10014000680400200648804706480047FEE7FEE7AF
:10015000FEE7FEE7FEE7FEE7FEE7FEE7FEE7FEE777
:10016000710E00083101000830B50B460146002031
:100170002022012409E021FA02F59D4205D303FA69
:1001800002F5491B04FA02F52844151EA2F10102EA
:10019000F1DC30BD064C074D06E0E06840F001039D
:1001A00094E8070098471034AC42F6D3FFF7C4FF39
:1001B0004C1500086C15000821B1826842F001025C
:1001C000826003E0826822F001028260704721B100
:1001D000826842F48072826003E0826822F4807256
:1001E00082607047014600208A6802F004020AB16A
:1001F000012000E000207047014600208A6802F0DC
:1002000008020AB1012000E00020704730B5024624
:100210000020002350680F4C20400D790C6844EA00
:1002200005242043506090680B4C2040D1E90254D3
:100230002C434D7944EA450420439060D06A20F471
:1002400070000C7C641EE4B2234340EA0350D06289
:1002500030BD0000FFFEF0FFFDF7F1FFF0B50446F2
:100260000D4600200021092D11DDE068A5F10A06E8
:1002700006EB4607072606FA07F18843A5F10A06AA
:1002800006EB460603FA06F10843E0600CE020693D
:1002900005EB4507072606FA07F1884305EB4506F7
:1002A00003FA06F108432061072A0FDA606B561E35
:1002B00006EB86071F2606FA07F18843561E06EB53
:1002C000860605FA06F10843606322E00D2A0FDA7C
:1002D000206BD61F06EB86071F2606FA07F1884318
:1002E000D61F06EB860605FA06F10843206310E0E8
:1002F000E06AA2F10D0606EB86071F2606FA07F153
:100300008843A2F10D0606EB860605FA06F10843BE
:10031000E062F0BD816841F008018160704721B161
:10032000826842F4A002826003E0826822F4A002A4
:1003300082607047816841F004018160704700006D
:1003400008B50121042000F05BFB0F20ADF8000090
:1003500000208DF803006946014800F07BF908BDD4
:100360000008014010B5FFF7EBFF00F001F810BDE9
:1003700000B591B00121084600F032FB012148028E
:1003800000F03EFB3D4800F097F83D4806903D48A0
:100390000790002008900420099000200A908020F7
:1003A0000B9040000C9080000D9020200E900002D9
:1003B0000F900020109006A9304800F023F9012189
:1003C0002E4800F06DF80020019001208DF8080003
:1003D0008DF809004FF46020039000200490042061
:1003E0008DF8140001A926484C38FFF70FFF4FF491
:1003F000404000F0E9FA05230122002120484C3852
:10040000FFF72CFF0523022201211D484C38FFF77E
:1004100025FF05230322022119484C38FFF71EFF50
:1004200005230422032116484C38FFF717FF01214A
:1004300013484C38FFF7CBFE012111484C38FFF729
:10044000BBFE0F484C38FFF765FF00BF0C484C3827
:10045000FFF7D2FE0028F9D109484C38FFF76AFFB0
:1004600000BF07484C38FFF7BDFE0028F9D1012135
:1004700003484C38FFF753FF11B000BD080002409D
:100480004C2401403A00002010B500F06BFB00F056
:1004900053FDFFF767FF00F077F910BD00BFFEE7DF
:1004A00021B1026842F00102026004E002684FF6E6
:1004B000FE731A400260704701684FF6FE721140E9
:1004C00001600021016041608160C1604B49884248
:1004D00008D14A490839496841F00F01474A083AAA
:1004E00051608AE045491431884208D143490839AE
:1004F000496841F0F001414A083A51607DE03F49C6
:100500002831884208D13D490839496841F4706171
:100510003A4A083A516070E038493C31884208D183
:1005200036490839496841F47041344A083A516003
:1005300063E032495031884208D13049083949686E
:1005400041F470212D4A083A516056E02B4964313C
:10055000884208D129490839496841F47001274A7D
:10056000083A516049E025497831884208D1234949
:100570000839496841F07061204A083A51603CE00E
:100580001F49884206D1011F096841F00F01021F6F
:10059000116032E01A491431884208D11849091F04
:1005A000096841F0F001164A121F116025E0144954
:1005B0002831884208D11249091F096841F4706145
:1005C0000F4A121F116018E00D493C31884208D1D2
:1005D0000B49091F096841F47041094A121F116053
:1005E0000BE007495031884207D10549091F0968C6
:1005F00041F47021024A121F116070470800024046
:100600000804024010B50022026847F6F0739A43CE
:100610000C6A8B6823430C6923434C6923438C6920
:100620002343CC6923434C6A23438C6A23431A43F4
:100630000260CB6843600B6883604B68C36010BD89
:10064000704701B502E00098401E00900098002815
:10065000F9D108BD2DE9F041024600250026002011
:1006600000230024002791F803C00CF00F0591F837
:1006700003C00CF0100CBCF1000F03D091F802C0C5
:100680004CEA050591F800C0BCF1000F31D01468A8
:1006900000202BE04FF0010C0CFA00F3B1F800C081
:1006A0000CEA03069E4220D183004FF00F0C0CFA97
:1006B00003F7BC4305FA03FC4CEA040491F803C0B9
:1006C000BCF1280F06D14FF0010C0CFA00FCC2F867
:1006D00014C00AE091F803C0BCF1480F05D14FF0F7
:1006E000010C0CFA00FCC2F810C0401C0828D1D341
:1006F0001460B1F800C0BCF1FF0F34DD5468002075
:100700002EE000F1080C4FF0010808FA0CF3B1F8E4
:1007100000C00CEA03069E4221D183004FF00F0C6B
:100720000CFA03F7BC4305FA03FC4CEA040491F805
:1007300003C0BCF1280F05D100F1080C08FA0CF831
:10074000C2F8148091F803C0BCF1480F07D100F142
:10075000080C4FF0010808FA0CF8C2F81080401C91
:100760000828CED35460BDE8F0810246002093688B
:100770000B400BB1012000E0002070474161704741
:100780000161704700BFFEE708B50121082000F0B5
:1007900037F92020ADF8000010208DF80300032069
:1007A0008DF8020069460F48FFF754FF0120ADF8AD
:1007B000000069460B48FFF74DFF0220ADF800002E
:1007C00069460848FFF746FF20210648FFF7D8FF93
:1007D00001210448FFF7D4FF02210248FFF7D0FFB0
:1007E00008BD0000000C014000BFFEE7704700009C
:1007F0001FB510A103C9CDE90201052202A93020CD
:1008000000F07CFA05226946102000F035FA002439
:1008100006E01DF80400C22800D003E0601CC4B24A
:10082000052CF6DB00BF052C02D1012004B010BD61
:100830000020FBE7C2C2C2C2C200000010B51021F6
:100840001848FFF79BFF05221749302000F056FAA1
:10085000052216492A2000F051FA0121212000F03A
:1008600073FA0121222000F06FFA1A21242000F0EF
:100870006BFA2821252000F067FA0F21262000F0CE
:1008800063FA0E21202000F05FFA10210548FFF7DF
:1008900077FF4FF6FF70FFF7D4FE01200449086090
:1008A00010BD00000008014030000020350000208D
:1008B000100C014070B5054610211548FFF75EFF8A
:1008C00010222946A02000F019FA10211048FFF745
:1008D00057FF00BF20210F48FFF747FF0028F9D13D
:1008E000072000F0EFF904462146272000F02CFAFB
:1008F000FF21E12000F028FA04F0100008B11020D8
:1009000070BD04F0200008B12020F9E70020F7E7CF
:10091000000801400010014008B54FF4A06000F04D
:1009200047F825208DF8000001208DF801008DF892
:1009300002008DF80300684600F002F808BD0000D0
:1009400070B5002100230F22C47804B3154C24682D
:1009500004F4E064C4F5E064210AC1F10403CA4070
:10096000447804FA03F184781440214309010E4CC1
:100970000678A155047804F01F050124AC400578E1
:100980006D11AD0005F1E025C5F8004109E00478DE
:1009900004F01F050124AC40044D0678761145F89B
:1009A000264070BD0CED00E000E400E080E100E0D6
:1009B00002490143024A1160704700000000FA0535
:1009C0000CED00E07047000001460020034A50682B
:1009D00020F440400843506070470000001002407F
:1009E00029B1064A52690243044B5A6104E0034AA2
:1009F00052698243014B5A61704700000010024067
:100A000029B1064A92690243044B9A6104E0034A01
:100A100092698243014B9A617047000000100240C6
:100A200030B500210022002400232D4D6D6805F013
:100A30000C0121B1042905D0082923D105E0294D55
:100A4000056022E0274D05601FE0254D6D6805F427
:100A50007012234D6D6805F48034022505EB924237
:100A60001CB9214D554305600BE01D4D6D6805F423
:100A700000351DB11C4D5543056002E0194D55432D
:100A8000056002E0174D056000BF00BF144D6D68A2
:100A900005F0F0010909154D6B5C0568DD40456006
:100AA0000F4D6D6805F4E061090A104D6B5C4568F7
:100AB000DD4085600A4D6D6805F46051C90A0B4D33
:100AC0006B5C4568DD40C560054D6D6805F44041CF
:100AD000890B074D6B5CC568B5FBF3F5056130BD4F
:100AE0000010024000127A0000093D0000000020C2
:100AF0001000002021B1028842F04002028004E090
:100B000002884FF6BF731A400280704702460020E9
:100B100013890B400BB1012000E000207047014613
:100B2000888970478181704710B50022028802F4DD
:100B300041520B884C8823438C882343CC88234321
:100B40000C8923434C8923438C892343CC89234339
:100B50001A430280838B4FF2FF74234083830B8AF6
:100B6000038210BD00B587B001211C20FFF748FFAC
:100B700001210803FFF744FFE020ADF80400012045
:100B80008DF8060018208DF8070001A92948FFF705
:100B900061FD1020ADF8040001208DF80600102042
:100BA0008DF8070001A92448FFF754FD1020ADF887
:100BB000040001208DF8060010208DF8070001A91F
:100BC0001C48FFF747FD2020ADF8040001208DF8F8
:100BD000060048208DF8070001A91748FFF73AFDE5
:100BE00010211548FFF7CCFD0020ADF808004FF4A8
:100BF0008270ADF80A000020ADF80C00ADF80E00D0
:100C0000ADF810004FF40070ADF812001020ADF8F0
:100C100014000020ADF816000720ADF8180002A956
:100C20000648FFF781FF01210448FFF763FF07B083
:100C300000BD0000000801400010014000300140EC
:100C400010B5044600BF02210A48FFF75FFF0028E5
:100C5000F9D021460748FFF765FF00BF012105488D
:100C6000FFF754FF0028F9D00248FFF758FFC0B241
:100C700010BD0000003001402DE9F04107460D464F
:100C8000164610210D48FFF779FD10210C48FFF79B
:100C900075FD3846FFF7D4FF8046002405E0FF20AD
:100CA000FFF7CEFF2855601CC4B2B442F7DB102119
:100CB0000348FFF765FD4046BDE8F08100080140AC
:100CC0000010014070B5044610210A48FFF756FD98
:100CD00010210948FFF752FD2046FFF7B1FFFF2022
:100CE000FFF7AEFF054610210348FFF749FD2846F0
:100CF00070BD000000080140001001402DE9F041E6
:100D000007460C46154610210D48FFF737FD102108
:100D10000C48FFF733FD3846FFF792FF8046002668
:100D200005E014F8010BFFF78BFF701CC6B2AE4252
:100D3000F7DB10210348FFF723FD4046BDE8F081B3
:100D4000000801400010014070B505460C46102116
:100D50000948FFF713FD10210848FFF70FFD28464B
:100D6000FFF76EFF06462046FFF76AFF1021034893
:100D7000FFF706FD304670BD00080140001001403D
:100D8000704710B500F002F810BD00000CB500204F
:100D9000019000903348006840F480303149086089
:100DA00000BF3048006800F4003000900198401CFB
:100DB0000190009818B90198B0F5A06FF1D12948B9
:100DC000006800F4003010B10120009001E0002024
:100DD00000900098012843D12348006840F010009B
:100DE000214908600846006820F0030008600846B2
:100DF000006840F0020008601A48406819494860DD
:100E00000846406848600846406840F48060486092
:100E10000846406820F47C1048600846406840F46A
:100E2000E81048600846006840F08070086000BF25
:100E30000C48006800F000700028F9D009484068AC
:100E400020F00300074948600846406840F002006F
:100E5000486000BF0348406800F00C000828F9D142
:100E60000CBD00000010024000200240704700004E
:100E700010B51348006840F00100114908600846A9
:100E80004068104908400E494860084600680E490D
:100E900008400B4908600846006820F4802008607C
:100EA0000846406820F4FE0048604FF41F00886048
:100EB000FFF767FF4FF000600449086010BD0000B5
:100EC000001002400000FFF8FFFFF6FE08ED00E012
:100ED00010B5FFF78DFC0749087008460078012817
:100EE00003D105A000F014F902E009A000F010F908
:100EF00010BD0000140000200D0A4E5246D3EBD660
:100F0000F7B0E5C1ACBDD3B3C9B9A60D0A00000066
:100F10000D0AC7EBBCECB2E9BDD3CFDF0D0A000070
:100F200021B1828942F40052828104E082894DF627
:100F3000FF731A408281704700B585B001210420FB
:100F4000FFF75EFD01218803FFF75AFD4FF40070A3
:100F5000ADF8100018208DF8130003208DF8120052
:100F600004A91748FFF776FB4FF48060ADF8100036
:100F700004208DF8130004A91148FFF76BFB4FF410
:100F8000E13000900020ADF80400ADF80600ADF8A7
:100F90000800ADF80C000C20ADF80A0069460948BD
:100FA00000F044F8FFF7B8FC012240F22551054853
:100FB00000F017F801210348FFF7B2FF05B000BDAC
:100FC000000801400038014002460020B1F5007FD2
:100FD00000D100BF13880B400BB1012000E00020BE
:100FE0007047F0B50346002400260025002040F697
:100FF0006A17B94200D100BF1846C1F3421401F08C
:101000001F06012707FA06F5012C01D10C3004E078
:10101000022C01D1103000E014301AB107682F43C0
:10102000076002E00768AF430760F0BD2DE9F047B5
:1010300086B005460E460024A24600BFA146002702
:10104000B08900B100BF2F462C8A4CF6FF700440D7
:10105000F08804432C82AC894EF6F3100440B0882B
:1010600031890843718908430443AC81AC8A4FF647
:10107000FF400440B0890443AC8201A8FFF7D0FCD4
:101080001F48874202D1DDF810A001E0DDF80CA076
:10109000A88900F4004040B10AEBCA0000EB0A1036
:1010A00031684900B0FBF1F807E00AEBCA0000EB39
:1010B0000A1031688900B0FBF1F86420B8FBF0F049
:1010C00004012009642101FB1089A88900F4004073
:1010D00040B1322000EBC900B0FBF1F000F0070096
:1010E000044308E0322000EB09106421B0FBF1F06A
:1010F00000F00F0004432C8106B0BDE8F08700002B
:1011000000380140C1F308028280704700BFFEE74B
:101110000FB4054B10B503A9044A029800F018F863
:1011200010BC5DF814FB0000A5120008440000206C
:1011300002E008C8121F08C1002AFAD170477047A0
:10114000002001E001C1121F002AFBD170470000FE
:101150002DE9FF4F89B09B460446002506E025286F
:101160000BD05A460B999047641C6D1C20780028C0
:10117000F5D10DB02846BDE8F08F0027B846012212
:10118000474900E0074314F8013F203B02FA03F00F
:101190000842F7D120782E2819D114F8010F47F012
:1011A00004072A280ED06FF02F022078A0F130011A
:1011B00009290CD808EB880102EB410100EB01087A
:1011C000641CF2E70A98641C50F8048B0A9020789B
:1011D0000028CED0642808D0692806D075281ED0F3
:1011E0005A460B9990476D1C58E00A994FF00A092E
:1011F00001C90A91002802DA40422D2102E0390596
:1012000004D52B218DF82010012103E0F90704D02B
:101210002021F7E78A4608AE0DE00021FAE70A9997
:101220004FF00A0901C90A91F7E74946FEF79CFF0A
:10123000303106F8011D0028F7D1ADEB060000F1B2
:101240002009780701D44FF00108C84502DDA8EB5A
:10125000090000E000208046002706E008A85A4662
:10126000C05D0B9990476D1C7F1C5745F6DB04E071
:1012700030205A460B9990476D1CB8F10001A8F137
:101280000108F5DC05E016F8010B5A460B9990476A
:101290006D1CB9F10001A9F10109F4DC641C65E7DA
:1012A0000928010070B504460D46E1B20548FFF774
:1012B00029FF00BF80210348FFF786FE0028F9D0F0
:1012C000204670BD00380140FFF7DEF8FFF700FE52
:1012D0000BE1864800888649086084484088486059
:1012E0008248808888608148C088C8600846006855
:1012F00041F29411884203D940F6B8307C49086025
:101300007B48406841F29411884203D940F6B830D6
:10131000774948607648806841F29411884203D941
:1013200040F6B830724988607148C06841F2941143
:10133000884203D940F6B8306D49C8606B480188CF
:101340006CA0FFF7E5FE694841886DA0FFF7E0FE5D
:10135000664881886DA0FFF7DBFE6448C1886EA0F7
:10136000FFF7D6FE624800684FF47A71B0FBF1F0E7
:101370000A21B0FBF1F201FB12006A4908705C48D7
:1013800000686421B0FBF1F00A21B0FBF1F201FB2F
:10139000120064494870564800680A21B0FBF1F019
:1013A000B0FBF1F201FB12005E4988705048006802
:1013B0000A21B0FBF1F201FB12005A49C8704C48F7
:1013C00040684FF47A71B0FBF1F00A21B0FBF1F202
:1013D00001FB120053490871454840686421B0FB85
:1013E000F1F00A21B0FBF1F201FB12004D49487106
:1013F0003F4840680A21B0FBF1F0B0FBF1F201FB7D
:101400001200484988713A4840680A21B0FBF1F25D
:1014100001FB12004349C871354880684FF47A7166
:10142000B0FBF1F00A21B0FBF1F201FB12003D49E3
:1014300008722F4880686421B0FBF1F00A21B0FBEC
:10144000F1F201FB120037494872294880680A21ED
:10145000B0FBF1F0B0FBF1F201FB120031498872F0
:10146000234880680A21B0FBF1F201FB12002D49EC
:10147000C8721F48C0684FF47A71B0FBF1F00A21BE
:10148000B0FBF1F201FB1200264908731848C0684E
:101490006421B0FBF1F00A21B0FBF1F201FB120074
:1014A000204948731248C0680A21B0FBF1F0B0FB34
:1014B000F1F201FB12001B4988730D48C0680A2134
:1014C000B0FBF1F201FB12001649C87300F030F8CE
:1014D00015480078402804D101211448FFF750F93D
:1014E00003E001211148FFF749F9F2E63A00002034
:1014F00058000020414443313D25640A00000000AB
:10150000414443323D25640A000000004144433316
:101510003D25640A00000000414443343D25640A2F
:10152000000000001500002014000020000C014005
:1015300010B5FFF783F90348FFF7BCF902490870BB
:1015400010BD000015000020140000206C150008DC
:10155000000000204800000030110008B415000809
:101560004800002020040000401100080000000096
:101570000102030401020304060708090204060825
:10158000000001020301010101010101010101014A
:1015900001000000000000000000000034431010B3
:1015A00001344310100100000000000000000000A2
:0415B0000000000037
:0400000508000131BD
:00000001FF
